{
  "contractName": "EtherGame",
  "abi": [
    {
      "anonymous": false,
      "inputs": [
        {
          "indexed": false,
          "internalType": "uint256",
          "name": "value",
          "type": "uint256"
        }
      ],
      "name": "Receive",
      "type": "event"
    },
    {
      "stateMutability": "payable",
      "type": "fallback",
      "payable": true
    },
    {
      "inputs": [],
      "name": "finalMileStone",
      "outputs": [
        {
          "internalType": "uint256",
          "name": "",
          "type": "uint256"
        }
      ],
      "stateMutability": "view",
      "type": "function",
      "constant": true
    },
    {
      "inputs": [],
      "name": "finalReward",
      "outputs": [
        {
          "internalType": "uint256",
          "name": "",
          "type": "uint256"
        }
      ],
      "stateMutability": "view",
      "type": "function",
      "constant": true
    },
    {
      "inputs": [],
      "name": "mileStone1Reward",
      "outputs": [
        {
          "internalType": "uint256",
          "name": "",
          "type": "uint256"
        }
      ],
      "stateMutability": "view",
      "type": "function",
      "constant": true
    },
    {
      "inputs": [],
      "name": "mileStone2Reward",
      "outputs": [
        {
          "internalType": "uint256",
          "name": "",
          "type": "uint256"
        }
      ],
      "stateMutability": "view",
      "type": "function",
      "constant": true
    },
    {
      "inputs": [],
      "name": "payoutMileStone1",
      "outputs": [
        {
          "internalType": "uint256",
          "name": "",
          "type": "uint256"
        }
      ],
      "stateMutability": "view",
      "type": "function",
      "constant": true
    },
    {
      "inputs": [],
      "name": "payoutMileStone2",
      "outputs": [
        {
          "internalType": "uint256",
          "name": "",
          "type": "uint256"
        }
      ],
      "stateMutability": "view",
      "type": "function",
      "constant": true
    },
    {
      "inputs": [],
      "name": "play",
      "outputs": [],
      "stateMutability": "payable",
      "type": "function",
      "payable": true
    },
    {
      "inputs": [],
      "name": "claimReward",
      "outputs": [],
      "stateMutability": "nonpayable",
      "type": "function"
    },
    {
      "inputs": [],
      "name": "getBalance",
      "outputs": [
        {
          "internalType": "uint256",
          "name": "",
          "type": "uint256"
        }
      ],
      "stateMutability": "view",
      "type": "function",
      "constant": true
    }
  ],
  "bytecode": "0x60806040526729a2241af62c0000600055671bc16d674ec80000600155674563918244f400006002556729a2241af62c0000600355678ac7230489e80000600455674563918244f4000060055534801561005857600080fd5b5061046a806100686000396000f3fe60806040526004361061008a5760003560e01c80636e1d5537116100595780636e1d55371461013957806382d4a75c146101645780638c6f37591461018f57806393e84cd9146101ba578063b88a802f146101c45761008b565b806312065fe01461008d57806316a1883a146100b85780631c95cfc1146100e357806333c2a9f81461010e5761008b565b5b005b34801561009957600080fd5b506100a26101db565b6040518082815260200191505060405180910390f35b3480156100c457600080fd5b506100cd6101e3565b6040518082815260200191505060405180910390f35b3480156100ef57600080fd5b506100f86101e9565b6040518082815260200191505060405180910390f35b34801561011a57600080fd5b506101236101ef565b6040518082815260200191505060405180910390f35b34801561014557600080fd5b5061014e6101f5565b6040518082815260200191505060405180910390f35b34801561017057600080fd5b506101796101fb565b6040518082815260200191505060405180910390f35b34801561019b57600080fd5b506101a4610201565b6040518082815260200191505060405180910390f35b6101c2610207565b005b3480156101d057600080fd5b506101d961034c565b005b600047905090565b60045481565b60025481565b60005481565b60055481565b60015481565b60035481565b6706f05b59d3b20000341461021b57600080fd5b6000344701905060045481111561023157600080fd5b60005481141561028f57600154600660003373ffffffffffffffffffffffffffffffffffffffff1673ffffffffffffffffffffffffffffffffffffffff16815260200190815260200160002060008282540192505081905550610349565b6002548114156102ed57600354600660003373ffffffffffffffffffffffffffffffffffffffff1673ffffffffffffffffffffffffffffffffffffffff16815260200190815260200160002060008282540192505081905550610348565b60045481141561034757600554600660003373ffffffffffffffffffffffffffffffffffffffff1673ffffffffffffffffffffffffffffffffffffffff168152602001908152602001600020600082825401925050819055505b5b5b50565b600454471461035a57600080fd5b6000600660003373ffffffffffffffffffffffffffffffffffffffff1673ffffffffffffffffffffffffffffffffffffffff16815260200190815260200160002054116103a657600080fd5b6000600660003373ffffffffffffffffffffffffffffffffffffffff1673ffffffffffffffffffffffffffffffffffffffff168152602001908152602001600020819055503373ffffffffffffffffffffffffffffffffffffffff166108fc479081150290604051600060405180830381858888f19350505050158015610431573d6000803e3d6000fd5b5056fea2646970667358221220acf1b4d8726d2a1de5d2c29601bc0bd2be0ad18dee0c80e6c8a6bb8a63bd1fb664736f6c63430007000033",
  "immutableReferences": {},
  "source": "pragma solidity ^0.7.0;\n\ncontract EtherGame {\n\n    uint public payoutMileStone1 = 3 ether;\n    uint public mileStone1Reward = 2 ether;\n    uint public payoutMileStone2 = 5 ether;\n    uint public mileStone2Reward = 3 ether;\n    uint public finalMileStone = 10 ether;\n    uint public finalReward = 5 ether;\n\n    event Receive(uint value);\n\n    mapping(address => uint) redeemableEther;\n    // Users pay 0.5 ether. At specific milestones, credit their accounts.\n    function play() external payable {\n        require(msg.value == 0.5 ether); // each play is 0.5 ether\n        uint currentBalance = address(this).balance + msg.value;\n        // ensure no players after the game has finished\n        require(currentBalance <= finalMileStone);\n        // if at a milestone, credit the player's account\n        if (currentBalance == payoutMileStone1) {\n            redeemableEther[msg.sender] += mileStone1Reward;\n        }\n        else if (currentBalance == payoutMileStone2) {\n            redeemableEther[msg.sender] += mileStone2Reward;\n        }\n        else if (currentBalance == finalMileStone ) {\n            redeemableEther[msg.sender] += finalReward;\n        }\n        return;\n    }\n\n    function claimReward() public {\n        // ensure the game is complete\n        require(address(this).balance == finalMileStone);\n        // ensure there is a reward to give\n        require(redeemableEther[msg.sender] > 0);\n        redeemableEther[msg.sender] = 0;\n        msg.sender.transfer(address(this).balance);\n    }\n\n    function getBalance() public view returns (uint256) {\n        return address(this).balance;\n    }\n\n    fallback() payable external {\n        // emit Receive(msg.value);let\n    }\n }",
  "sourcePath": "/home/sid/repos/web3/unexpected-ether/contracts/EtherGame.sol",
  "compiler": {
    "name": "solc",
    "version": "0.7.0+commit.9e61f92b.Emscripten.clang"
  },
  "schemaVersion": "3.3.2",
  "updatedAt": "2020-11-19T07:42:55.227Z",
  "networkType": "ethereum",
  "devdoc": {
    "kind": "dev",
    "methods": {},
    "version": 1
  },
  "userdoc": {
    "kind": "user",
    "methods": {},
    "version": 1
  }
}