{
  "contractName": "EtherGame",
  "abi": [
    {
      "inputs": [],
      "name": "finalMileStone",
      "outputs": [
        {
          "internalType": "uint256",
          "name": "",
          "type": "uint256"
        }
      ],
      "stateMutability": "view",
      "type": "function",
      "constant": true
    },
    {
      "inputs": [],
      "name": "finalReward",
      "outputs": [
        {
          "internalType": "uint256",
          "name": "",
          "type": "uint256"
        }
      ],
      "stateMutability": "view",
      "type": "function",
      "constant": true
    },
    {
      "inputs": [],
      "name": "mileStone1Reward",
      "outputs": [
        {
          "internalType": "uint256",
          "name": "",
          "type": "uint256"
        }
      ],
      "stateMutability": "view",
      "type": "function",
      "constant": true
    },
    {
      "inputs": [],
      "name": "mileStone2Reward",
      "outputs": [
        {
          "internalType": "uint256",
          "name": "",
          "type": "uint256"
        }
      ],
      "stateMutability": "view",
      "type": "function",
      "constant": true
    },
    {
      "inputs": [],
      "name": "payoutMileStone1",
      "outputs": [
        {
          "internalType": "uint256",
          "name": "",
          "type": "uint256"
        }
      ],
      "stateMutability": "view",
      "type": "function",
      "constant": true
    },
    {
      "inputs": [],
      "name": "payoutMileStone2",
      "outputs": [
        {
          "internalType": "uint256",
          "name": "",
          "type": "uint256"
        }
      ],
      "stateMutability": "view",
      "type": "function",
      "constant": true
    },
    {
      "inputs": [],
      "name": "play",
      "outputs": [],
      "stateMutability": "payable",
      "type": "function",
      "payable": true
    },
    {
      "inputs": [],
      "name": "claimReward",
      "outputs": [],
      "stateMutability": "nonpayable",
      "type": "function"
    },
    {
      "inputs": [],
      "name": "getBalance",
      "outputs": [
        {
          "internalType": "uint256",
          "name": "",
          "type": "uint256"
        }
      ],
      "stateMutability": "view",
      "type": "function",
      "constant": true
    }
  ],
  "bytecode": "0x60806040526729a2241af62c0000600055671bc16d674ec80000600155674563918244f400006002556729a2241af62c0000600355678ac7230489e80000600455674563918244f4000060055534801561005857600080fd5b50610468806100686000396000f3fe6080604052600436106100865760003560e01c80636e1d5537116100595780636e1d55371461013757806382d4a75c146101625780638c6f37591461018d57806393e84cd9146101b8578063b88a802f146101c257610086565b806312065fe01461008b57806316a1883a146100b65780631c95cfc1146100e157806333c2a9f81461010c575b600080fd5b34801561009757600080fd5b506100a06101d9565b6040518082815260200191505060405180910390f35b3480156100c257600080fd5b506100cb6101e1565b6040518082815260200191505060405180910390f35b3480156100ed57600080fd5b506100f66101e7565b6040518082815260200191505060405180910390f35b34801561011857600080fd5b506101216101ed565b6040518082815260200191505060405180910390f35b34801561014357600080fd5b5061014c6101f3565b6040518082815260200191505060405180910390f35b34801561016e57600080fd5b506101776101f9565b6040518082815260200191505060405180910390f35b34801561019957600080fd5b506101a26101ff565b6040518082815260200191505060405180910390f35b6101c0610205565b005b3480156101ce57600080fd5b506101d761034a565b005b600047905090565b60045481565b60025481565b60005481565b60055481565b60015481565b60035481565b6706f05b59d3b20000341461021957600080fd5b6000344701905060045481111561022f57600080fd5b60005481141561028d57600154600660003373ffffffffffffffffffffffffffffffffffffffff1673ffffffffffffffffffffffffffffffffffffffff16815260200190815260200160002060008282540192505081905550610347565b6002548114156102eb57600354600660003373ffffffffffffffffffffffffffffffffffffffff1673ffffffffffffffffffffffffffffffffffffffff16815260200190815260200160002060008282540192505081905550610346565b60045481141561034557600554600660003373ffffffffffffffffffffffffffffffffffffffff1673ffffffffffffffffffffffffffffffffffffffff168152602001908152602001600020600082825401925050819055505b5b5b50565b600454471461035857600080fd5b6000600660003373ffffffffffffffffffffffffffffffffffffffff1673ffffffffffffffffffffffffffffffffffffffff16815260200190815260200160002054116103a457600080fd5b6000600660003373ffffffffffffffffffffffffffffffffffffffff1673ffffffffffffffffffffffffffffffffffffffff168152602001908152602001600020819055503373ffffffffffffffffffffffffffffffffffffffff166108fc479081150290604051600060405180830381858888f1935050505015801561042f573d6000803e3d6000fd5b5056fea2646970667358221220302aa8672a57ad6e8dc5d1fe783ec41da0576362a87e48050405804a09e4335a64736f6c63430007000033",
  "immutableReferences": {},
  "source": "pragma solidity ^0.7.0;\n\ncontract EtherGame {\n\n    uint public payoutMileStone1 = 3 ether;\n    uint public mileStone1Reward = 2 ether;\n    uint public payoutMileStone2 = 5 ether;\n    uint public mileStone2Reward = 3 ether;\n    uint public finalMileStone = 10 ether;\n    uint public finalReward = 5 ether;\n\n    mapping(address => uint) redeemableEther;\n    // Users pay 0.5 ether. At specific milestones, credit their accounts.\n    function play() external payable {\n        require(msg.value == 0.5 ether); // each play is 0.5 ether\n        uint currentBalance = address(this).balance + msg.value;\n        // ensure no players after the game has finished\n        require(currentBalance <= finalMileStone);\n        // if at a milestone, credit the player's account\n        if (currentBalance == payoutMileStone1) {\n            redeemableEther[msg.sender] += mileStone1Reward;\n        }\n        else if (currentBalance == payoutMileStone2) {\n            redeemableEther[msg.sender] += mileStone2Reward;\n        }\n        else if (currentBalance == finalMileStone ) {\n            redeemableEther[msg.sender] += finalReward;\n        }\n        return;\n    }\n\n    function claimReward() public {\n        // ensure the game is complete\n        require(address(this).balance == finalMileStone);\n        // ensure there is a reward to give\n        require(redeemableEther[msg.sender] > 0);\n        redeemableEther[msg.sender] = 0;\n        msg.sender.transfer(address(this).balance);\n    }\n\n    function getBalance() public view returns (uint256) {\n      return address(this).balance;\n    }\n }",
  "sourcePath": "/home/sid/repos/web3/unexpected-ether/contracts/EtherGame.sol",
  "compiler": {
    "name": "solc",
    "version": "0.7.0+commit.9e61f92b.Emscripten.clang"
  },
  "schemaVersion": "3.3.2",
  "updatedAt": "2020-11-09T09:37:59.294Z",
  "networkType": "ethereum",
  "devdoc": {
    "kind": "dev",
    "methods": {},
    "version": 1
  },
  "userdoc": {
    "kind": "user",
    "methods": {},
    "version": 1
  }
}