{
  "contractName": "Sender",
  "abi": [
    {
      "stateMutability": "payable",
      "type": "fallback",
      "payable": true
    },
    {
      "inputs": [
        {
          "internalType": "address payable",
          "name": "_payee",
          "type": "address"
        }
      ],
      "name": "send",
      "outputs": [],
      "stateMutability": "nonpayable",
      "type": "function"
    },
    {
      "inputs": [],
      "name": "getBalance",
      "outputs": [
        {
          "internalType": "uint256",
          "name": "",
          "type": "uint256"
        }
      ],
      "stateMutability": "view",
      "type": "function",
      "constant": true
    }
  ],
  "bytecode": "0x608060405234801561001057600080fd5b50610128806100206000396000f3fe60806040526004361060295760003560e01c806312065fe014602c5780633e58c58c14605457602a565b5b005b348015603757600080fd5b50603e60a1565b6040518082815260200191505060405180910390f35b348015605f57600080fd5b50609f60048036036020811015607457600080fd5b81019080803573ffffffffffffffffffffffffffffffffffffffff16906020019092919050505060a9565b005b600047905090565b8073ffffffffffffffffffffffffffffffffffffffff166108fc479081150290604051600060405180830381858888f1935050505015801560ee573d6000803e3d6000fd5b505056fea264697066735822122018b793a8f08cd100fa3b2cee9bb4ed8e5d9fd35131408796879e3f1387fa691364736f6c63430007000033",
  "immutableReferences": {},
  "source": "pragma solidity ^0.7.0;\n\ncontract Sender {\n    function send(address payable _payee) public {\n    _payee.transfer(address(this).balance);\n  }\n\n  function getBalance() public view returns (uint256) {\n        return address(this).balance;\n    }\n\n  fallback() external payable {\n\n  }\n}",
  "sourcePath": "/home/sid/repos/web3/unexpected-ether/contracts/Sender.sol",
  "compiler": {
    "name": "solc",
    "version": "0.7.0+commit.9e61f92b.Emscripten.clang"
  },
  "schemaVersion": "3.3.2",
  "updatedAt": "2020-11-19T05:48:08.773Z",
  "networkType": "ethereum",
  "devdoc": {
    "kind": "dev",
    "methods": {},
    "version": 1
  },
  "userdoc": {
    "kind": "user",
    "methods": {},
    "version": 1
  }
}